{
  "contractName": "Wallet",
  "abi": [
    {
      "inputs": [
        {
          "internalType": "address[]",
          "name": "_approvers",
          "type": "address[]"
        },
        {
          "internalType": "uint256",
          "name": "_quorum",
          "type": "uint256"
        }
      ],
      "stateMutability": "nonpayable",
      "type": "constructor"
    },
    {
      "inputs": [
        {
          "internalType": "address",
          "name": "",
          "type": "address"
        },
        {
          "internalType": "uint256",
          "name": "",
          "type": "uint256"
        }
      ],
      "name": "approvals",
      "outputs": [
        {
          "internalType": "bool",
          "name": "",
          "type": "bool"
        }
      ],
      "stateMutability": "view",
      "type": "function",
      "constant": true
    },
    {
      "inputs": [
        {
          "internalType": "uint256",
          "name": "",
          "type": "uint256"
        }
      ],
      "name": "approvers",
      "outputs": [
        {
          "internalType": "address",
          "name": "",
          "type": "address"
        }
      ],
      "stateMutability": "view",
      "type": "function",
      "constant": true
    },
    {
      "inputs": [],
      "name": "quorum",
      "outputs": [
        {
          "internalType": "uint256",
          "name": "",
          "type": "uint256"
        }
      ],
      "stateMutability": "view",
      "type": "function",
      "constant": true
    },
    {
      "inputs": [
        {
          "internalType": "uint256",
          "name": "",
          "type": "uint256"
        }
      ],
      "name": "transfers",
      "outputs": [
        {
          "internalType": "uint256",
          "name": "id",
          "type": "uint256"
        },
        {
          "internalType": "uint256",
          "name": "amount",
          "type": "uint256"
        },
        {
          "internalType": "address payable",
          "name": "to",
          "type": "address"
        },
        {
          "internalType": "uint256",
          "name": "approvals",
          "type": "uint256"
        },
        {
          "internalType": "bool",
          "name": "sent",
          "type": "bool"
        }
      ],
      "stateMutability": "view",
      "type": "function",
      "constant": true
    },
    {
      "stateMutability": "payable",
      "type": "receive",
      "payable": true
    },
    {
      "inputs": [],
      "name": "getTransfers",
      "outputs": [
        {
          "components": [
            {
              "internalType": "uint256",
              "name": "id",
              "type": "uint256"
            },
            {
              "internalType": "uint256",
              "name": "amount",
              "type": "uint256"
            },
            {
              "internalType": "address payable",
              "name": "to",
              "type": "address"
            },
            {
              "internalType": "uint256",
              "name": "approvals",
              "type": "uint256"
            },
            {
              "internalType": "bool",
              "name": "sent",
              "type": "bool"
            }
          ],
          "internalType": "struct Wallet.Transfer[]",
          "name": "",
          "type": "tuple[]"
        }
      ],
      "stateMutability": "view",
      "type": "function",
      "constant": true
    },
    {
      "inputs": [],
      "name": "getApprovers",
      "outputs": [
        {
          "internalType": "address[]",
          "name": "",
          "type": "address[]"
        }
      ],
      "stateMutability": "view",
      "type": "function",
      "constant": true
    },
    {
      "inputs": [
        {
          "internalType": "uint256",
          "name": "id",
          "type": "uint256"
        }
      ],
      "name": "approveTransfer",
      "outputs": [],
      "stateMutability": "nonpayable",
      "type": "function"
    },
    {
      "inputs": [
        {
          "internalType": "uint256",
          "name": "amount",
          "type": "uint256"
        },
        {
          "internalType": "address payable",
          "name": "to",
          "type": "address"
        }
      ],
      "name": "createTransfer",
      "outputs": [],
      "stateMutability": "nonpayable",
      "type": "function"
    }
  ],
  "bytecode": "0x60806040523480156200001157600080fd5b50604051620014c9380380620014c98339818101604052810190620000379190620001e9565b81600090805190602001906200004f9291906200005f565b50806001819055505050620003a3565b828054828255906000526020600020908101928215620000db579160200282015b82811115620000da5782518260006101000a81548173ffffffffffffffffffffffffffffffffffffffff021916908373ffffffffffffffffffffffffffffffffffffffff1602179055509160200191906001019062000080565b5b509050620000ea9190620000ee565b5090565b5b8082111562000109576000816000905550600101620000ef565b5090565b6000620001246200011e8462000278565b6200024f565b905080838252602082019050828560208602820111156200014a57620001496200034f565b5b60005b858110156200017e578162000163888262000188565b8452602084019350602083019250506001810190506200014d565b5050509392505050565b60008151905062000199816200036f565b92915050565b600082601f830112620001b757620001b66200034a565b5b8151620001c98482602086016200010d565b91505092915050565b600081519050620001e38162000389565b92915050565b6000806040838503121562000203576200020262000359565b5b600083015167ffffffffffffffff81111562000224576200022362000354565b5b62000232858286016200019f565b92505060206200024585828601620001d2565b9150509250929050565b60006200025b6200026e565b9050620002698282620002e5565b919050565b6000604051905090565b600067ffffffffffffffff8211156200029657620002956200031b565b5b602082029050602081019050919050565b6000620002b482620002bb565b9050919050565b600073ffffffffffffffffffffffffffffffffffffffff82169050919050565b6000819050919050565b620002f0826200035e565b810181811067ffffffffffffffff821117156200031257620003116200031b565b5b80604052505050565b7f4e487b7100000000000000000000000000000000000000000000000000000000600052604160045260246000fd5b600080fd5b600080fd5b600080fd5b600080fd5b6000601f19601f8301169050919050565b6200037a81620002a7565b81146200038657600080fd5b50565b6200039481620002db565b8114620003a057600080fd5b50565b61111680620003b36000396000f3fe60806040526004361061007f5760003560e01c80639377d7111161004e5780639377d71114610135578063cacca4a014610176578063d3650fb81461019f578063ffabc673146101dc57610086565b80631703a0181461008b5780632f65142c146100b65780634c12fa47146100e15780636cb3e8ef1461010a57610086565b3661008657005b600080fd5b34801561009757600080fd5b506100a0610219565b6040516100ad9190610e29565b60405180910390f35b3480156100c257600080fd5b506100cb61021f565b6040516100d89190610d8c565b60405180910390f35b3480156100ed57600080fd5b5061010860048036038101906101039190610ada565b61030d565b005b34801561011657600080fd5b5061011f6104ed565b60405161012c9190610d6a565b60405180910390f35b34801561014157600080fd5b5061015c60048036038101906101579190610aad565b61057b565b60405161016d959493929190610e44565b60405180910390f35b34801561018257600080fd5b5061019d60048036038101906101989190610aad565b6105ee565b005b3480156101ab57600080fd5b506101c660048036038101906101c19190610aad565b6109c0565b6040516101d39190610d4f565b60405180910390f35b3480156101e857600080fd5b5061020360048036038101906101fe9190610a6d565b6109ff565b6040516102109190610dae565b60405180910390f35b60015481565b60606002805480602002602001604051908101604052809291908181526020016000905b8282101561030457838290600052602060002090600502016040518060a001604052908160008201548152602001600182015481526020016002820160009054906101000a900473ffffffffffffffffffffffffffffffffffffffff1673ffffffffffffffffffffffffffffffffffffffff1673ffffffffffffffffffffffffffffffffffffffff168152602001600382015481526020016004820160009054906101000a900460ff16151515158152505081526020019060010190610243565b50505050905090565b6000805b6000805490508110156103a8573373ffffffffffffffffffffffffffffffffffffffff166000828154811061034957610348610fec565b5b9060005260206000200160009054906101000a900473ffffffffffffffffffffffffffffffffffffffff1673ffffffffffffffffffffffffffffffffffffffff16141561039557600191505b80806103a090610f74565b915050610311565b5060011515811515146103f0576040517f08c379a00000000000000000000000000000000000000000000000000000000081526004016103e790610de9565b60405180910390fd5b60026040518060a0016040528060028054905081526020018581526020018473ffffffffffffffffffffffffffffffffffffffff16815260200160008152602001600015158152509080600181540180825580915050600190039060005260206000209060050201600090919091909150600082015181600001556020820151816001015560408201518160020160006101000a81548173ffffffffffffffffffffffffffffffffffffffff021916908373ffffffffffffffffffffffffffffffffffffffff1602179055506060820151816003015560808201518160040160006101000a81548160ff0219169083151502179055505050505050565b6060600080548060200260200160405190810160405280929190818152602001828054801561057157602002820191906000526020600020905b8160009054906101000a900473ffffffffffffffffffffffffffffffffffffffff1673ffffffffffffffffffffffffffffffffffffffff1681526020019060010190808311610527575b5050505050905090565b6002818154811061058b57600080fd5b90600052602060002090600502016000915090508060000154908060010154908060020160009054906101000a900473ffffffffffffffffffffffffffffffffffffffff16908060030154908060040160009054906101000a900460ff16905085565b6000805b600080549050811015610689573373ffffffffffffffffffffffffffffffffffffffff166000828154811061062a57610629610fec565b5b9060005260206000200160009054906101000a900473ffffffffffffffffffffffffffffffffffffffff1673ffffffffffffffffffffffffffffffffffffffff16141561067657600191505b808061068190610f74565b9150506105f2565b5060011515811515146106d1576040517f08c379a00000000000000000000000000000000000000000000000000000000081526004016106c890610de9565b60405180910390fd5b60001515600283815481106106e9576106e8610fec565b5b906000526020600020906005020160040160009054906101000a900460ff1615151461074a576040517f08c379a000000000000000000000000000000000000000000000000000000000815260040161074190610dc9565b60405180910390fd5b60001515600360003373ffffffffffffffffffffffffffffffffffffffff1673ffffffffffffffffffffffffffffffffffffffff168152602001908152602001600020600084815260200190815260200160002060009054906101000a900460ff161515146107ee576040517f08c379a00000000000000000000000000000000000000000000000000000000081526004016107e590610e09565b60405180910390fd5b6001600360003373ffffffffffffffffffffffffffffffffffffffff1673ffffffffffffffffffffffffffffffffffffffff168152602001908152602001600020600084815260200190815260200160002060006101000a81548160ff0219169083151502179055506002828154811061086b5761086a610fec565b5b9060005260206000209060050201600301600081548092919061088d90610f74565b9190505550600154600283815481106108a9576108a8610fec565b5b906000526020600020906005020160030154106109bc576001600283815481106108d6576108d5610fec565b5b906000526020600020906005020160040160006101000a81548160ff02191690831515021790555060006002838154811061091457610913610fec565b5b906000526020600020906005020160020160009054906101000a900473ffffffffffffffffffffffffffffffffffffffff16905060006002848154811061095e5761095d610fec565b5b90600052602060002090600502016001015490508173ffffffffffffffffffffffffffffffffffffffff166108fc829081150290604051600060405180830381858888f193505050501580156109b8573d6000803e3d6000fd5b5050505b5050565b600081815481106109d057600080fd5b906000526020600020016000915054906101000a900473ffffffffffffffffffffffffffffffffffffffff1681565b60036020528160005260406000206020528060005260406000206000915091509054906101000a900460ff1681565b600081359050610a3d8161109b565b92915050565b600081359050610a52816110b2565b92915050565b600081359050610a67816110c9565b92915050565b60008060408385031215610a8457610a8361101b565b5b6000610a9285828601610a2e565b9250506020610aa385828601610a58565b9150509250929050565b600060208284031215610ac357610ac261101b565b5b6000610ad184828501610a58565b91505092915050565b60008060408385031215610af157610af061101b565b5b6000610aff85828601610a58565b9250506020610b1085828601610a43565b9150509250929050565b6000610b268383610b68565b60208301905092915050565b6000610b3e8383610cc9565b60a08301905092915050565b610b5381610f2c565b82525050565b610b6281610f2c565b82525050565b610b7181610f1a565b82525050565b610b8081610f1a565b82525050565b6000610b9182610eb7565b610b9b8185610ee7565b9350610ba683610e97565b8060005b83811015610bd7578151610bbe8882610b1a565b9750610bc983610ecd565b925050600181019050610baa565b5085935050505092915050565b6000610bef82610ec2565b610bf98185610ef8565b9350610c0483610ea7565b8060005b83811015610c35578151610c1c8882610b32565b9750610c2783610eda565b925050600181019050610c08565b5085935050505092915050565b610c4b81610f3e565b82525050565b610c5a81610f3e565b82525050565b6000610c6d601e83610f09565b9150610c7882611020565b602082019050919050565b6000610c90601583610f09565b9150610c9b82611049565b602082019050919050565b6000610cb3601d83610f09565b9150610cbe82611072565b602082019050919050565b60a082016000820151610cdf6000850182610d31565b506020820151610cf26020850182610d31565b506040820151610d056040850182610b4a565b506060820151610d186060850182610d31565b506080820151610d2b6080850182610c42565b50505050565b610d3a81610f6a565b82525050565b610d4981610f6a565b82525050565b6000602082019050610d646000830184610b77565b92915050565b60006020820190508181036000830152610d848184610b86565b905092915050565b60006020820190508181036000830152610da68184610be4565b905092915050565b6000602082019050610dc36000830184610c51565b92915050565b60006020820190508181036000830152610de281610c60565b9050919050565b60006020820190508181036000830152610e0281610c83565b9050919050565b60006020820190508181036000830152610e2281610ca6565b9050919050565b6000602082019050610e3e6000830184610d40565b92915050565b600060a082019050610e596000830188610d40565b610e666020830187610d40565b610e736040830186610b59565b610e806060830185610d40565b610e8d6080830184610c51565b9695505050505050565b6000819050602082019050919050565b6000819050602082019050919050565b600081519050919050565b600081519050919050565b6000602082019050919050565b6000602082019050919050565b600082825260208201905092915050565b600082825260208201905092915050565b600082825260208201905092915050565b6000610f2582610f4a565b9050919050565b6000610f3782610f4a565b9050919050565b60008115159050919050565b600073ffffffffffffffffffffffffffffffffffffffff82169050919050565b6000819050919050565b6000610f7f82610f6a565b91507fffffffffffffffffffffffffffffffffffffffffffffffffffffffffffffffff821415610fb257610fb1610fbd565b5b600182019050919050565b7f4e487b7100000000000000000000000000000000000000000000000000000000600052601160045260246000fd5b7f4e487b7100000000000000000000000000000000000000000000000000000000600052603260045260246000fd5b600080fd5b7f7472616e736665722068617320616c7265616479206265656e2073656e740000600082015250565b7f6f6e6c7920617070726f76657220616c6c6f7765640000000000000000000000600082015250565b7f63616e6e6f7420617070726f7665207472616e73666572207477696365000000600082015250565b6110a481610f1a565b81146110af57600080fd5b50565b6110bb81610f2c565b81146110c657600080fd5b50565b6110d281610f6a565b81146110dd57600080fd5b5056fea26469706673582212206744e3634453e99caf3ce35b0035581fce9540697c4a26f96824c28f2ba4340564736f6c63430008070033",
  "immutableReferences": {},
  "source": "// SPDX-License-Identifier: MIT\npragma solidity ^0.8.7;\npragma experimental ABIEncoderV2;\n\ncontract Wallet {\n  address[] public approvers; //this keeps an array of addresses of approvers\n  uint256 public quorum; //this is the maximum number of approvers needed to make a transaction\n\n  struct Transfer {\n    //this is a single transfer object, it details;\n    uint256 id; //an individual transfer identifier, the current transfers array length\n    uint256 amount; //amount associated with the transfer\n    address payable to; //address being sent value\n    uint256 approvals;\n    bool sent;\n  }\n\n  Transfer[] public transfers;\n\n  mapping(address => mapping(uint256 => bool)) public approvals; //maps an account to current transfer tells if it has been approved by a current address, it maps an address to an id of transaction, and is either been approved by the address or not\n\n  constructor(address[] memory _approvers, uint256 _quorum) {\n    //initiated once contract is deployed.\n    approvers = _approvers; //list of account that are allowed to approve a transaction\n    quorum = _quorum; //minimum number of approvals needed to send a single transfer\n  }\n\n  modifier onlyApprover() {\n    bool allowed = false;\n    for (uint256 i = 0; i < approvers.length; i++) {\n      if (approvers[i] == msg.sender) {\n        allowed = true;\n      }\n    }\n    require(allowed == true, \"only approver allowed\");\n    _;\n  }\n\n  function getTransfers() external view returns (Transfer[] memory) {\n    //in order to return an array from a struct , i added an extra pragma compiler to enable features of the compiler that isnt available by default\n    return transfers; //returns addresses that have approved the transfer\n  }\n\n  function getApprovers() external view returns (address[] memory) {\n    return approvers; //returns addresses that have approved the transfer\n  }\n\n  function approveTransfer(uint256 id) external onlyApprover {\n    //this is to approve transfer objects that have been created already\n    require(transfers[id].sent == false, \"transfer has already been sent\");\n    require(\n      approvals[msg.sender][id] == false,\n      \"cannot approve transfer twice\"\n    );\n\n    approvals[msg.sender][id] = true; //sets approve on current transfer to true,if false\n    transfers[id].approvals++; //adds to the number of approvals on a single transfer\n\n    if (transfers[id].approvals >= quorum) {\n      transfers[id].sent = true;\n      address payable to = transfers[id].to;\n      uint256 amount = transfers[id].amount;\n      to.transfer(amount);\n    }\n  }\n\n  function createTransfer(uint256 amount, address payable to)\n    external\n    onlyApprover\n  {\n    transfers.push(\n      Transfer( //creates transfer struct\n        transfers.length, //declares the current length of array to id of individual item\n        amount,\n        to,\n        0, //initial number of approvals on transfer\n        false\n      ) //adds new transfer to the array list of transfers\n    );\n  }\n\n  receive() external payable {}\n}\n",
  "sourcePath": "/home/maimunat/Desktop/multi-sig-wallet/contracts/wallet.sol",
  "compiler": {
    "name": "solc",
    "version": "0.8.7+commit.e28d00a7.Emscripten.clang"
  },
  "schemaVersion": "3.4.6",
  "updatedAt": "2022-04-23T14:03:37.854Z",
  "networkType": "ethereum",
  "devdoc": {
    "kind": "dev",
    "methods": {},
    "version": 1
  },
  "userdoc": {
    "kind": "user",
    "methods": {},
    "version": 1
  }
}